:0400000038EF00F0E5
:100018000180D8CF02F0E8CF03F0E0CF04F0F2A2DD
:1000280018EF00F01AEF00F01DEF00F0580EAD6E5B
:10003800F2929EAA22EF00F024EF00F030EF00F0D9
:10004800AECF05F0580E0518D8A42DEF00F02FEF0D
:1000580000F030EF00F0837604C0E0FF03C0E8FF53
:0C00680002C0D8FF01901000B2EF01F0C0
:10030000000095949596839483969FEC01F0ACEC55
:1003100001F0040E066EE40EE82EFED7062EFCD782
:1003200000D08384040E066EE40EE82EFED7062E5F
:10033000FCD700D0839489EF01F038EF00F0949C53
:10034000948EAC98AC94AA960C0EAF6EAC8AAB8827
:10035000AB8E9D8AF28C1200F28CF288F19CD09EBA
:0E036000F28E120001900192000181EF01F077
:020000040030CA
:08000000FFC80F3E3C9D81FF8B
:00000001FF
